:0400000094EF00F089
:100008005A82FACF14F0FBCF15F0E9CF16F0EACFF9
:1000180017F0E1CF18F0E2CF19F0D9CF1AF0DACF04
:100028001BF0F3CF1CF0F4CF1DF0F6CF1EF0F7CF86
:100038001FF0F8CF20F0F5CF21F05AC022F05BC0B6
:1000480023F05CC024F05DC025F09EA243D0495047
:10005800D8B423D08B823F0E486402D0000E486E7D
:100068004850020DF3503D24D96EF4503E20DA6E0C
:10007800DECF01F0DDCF02F03BC003F03CC004F05E
:1000880049EC10F001C008F002C009F0000E0B6E38
:10009800000E0A6EB8EC10F0482A4950D8A419D0BE
:1000A800C190C192C194C1960C0EAEEC11F001C082
:1000B800BAF102C0BBF10A0EAEEC11F001C0B8F102
:1000C80002C0B9F1C180C182C184C1864A50D8A496
:1000D8008C729E9225C05DF024C05CF023C05BF05A
:1000E80022C05AF021C0F5FF20C0F8FF1FC0F7FF5B
:1000F8001EC0F6FF1DC0F4FF1CC0F3FF1BC0DAFFD3
:100108001AC0D9FF19C0E2FF18C0E1FF17C0EAFF03
:1001180016C0E9FF15C0FBFF14C0FAFF5A92110080
:04012800B6EF0CF032
:0F1000000001000A006400E803102725750000B6
:10101000D388D38AD38CD3A4FED7959E8C8E959CEF
:101020008C9CF9EC11F08CEC12F037EC12F04CECDB
:1010300012F05CEC12F0C180C182C184C186F28CD6
:10104000F28E9D828C908C92F9EC10F022EE00F0E2
:1010500011EE1EF07F0EDBCFE3FFE806FCE21E0E72
:101060003D6E010E3E6E39EC0FF0D9D0BAC1E7F0FB
:10107000BBC1E8F030EC09F0000E266E020E09EC60
:1010800012F0F1D768EC11F073EC0EF080EC12F076
:10109000030E36D02FEC0EF0410E0001F86FEE0E6D
:1010A000E82EFED7F82FFCD700F083A4F1D780EC10
:1010B00012F0040E25D0B8C1E7F0B9C1E8F078EC21
:1010C0000BF0E7C0B6F1E8C0B7F1B6C126F0B7C182
:1010D00027F009EC0DF000F0410E0001F86FEE0E64
:1010E000E82EFED7F82FFCD700F083A404D080ECC4
:1010F00012F0050E05D083A6DCD780EC12F0C8D71D
:101100000101BC6FB0D7BAC1E7F0BBC1E8F049EC50
:101110000AF0D00E0001F86FC90EE82EFED7F82FA6
:10112000FCD700D083A407D080EC12F0060E01019A
:10113000BC6F00F098D783A6DCD780EC12F0B9D74B
:10114000DAEC10F0B5EC0EF0070EDAD78C9E8C8C32
:1011500019EC12F00A0ECB6E010E496E3DD0850ED1
:101160005FEC0CF021EEACF011EE9EF0090EDBCF3F
:10117000E3FFE806FCE29E0E296E010E2A6E4EEC9D
:1011800011F0C60E5FEC0CF0A80E0001DA6F010E34
:10119000DB6F0B0EDC6F100EDD6FB6C1DEF0B7C17A
:1011A000DFF0E6EC0AF0A80E296E010E2A6E4EEC76
:1011B00011F07CEC12F0460E08EC0CF04E0E000123
:1011C000F86FEB0EE82EFED7F82FFCD783A404D0DF
:1011D00080EC12F00A0E94D7080E92D783A408D0A0
:1011E000CB68CA828C92000E4A6E80EC12F050D707
:1011F000090E87D7000E286E000E276E000E2A6E8D
:10120000000E296E72EC10F08B928C9C8C8ECB6849
:10121000000E496E37EC12F0F9EC10F039D70101ED
:10122000BC51000AD8B422D7020AD8B42BD7010A7D
:10123000D8B430D7070AD8B43ED7010AD8B463D798
:10124000030AD8B47DD7010AD8B480D70F0AD8B41E
:1012500086D7010AD8B4C2D7030AD8B4CBD703D7EC
:10126000800E5FEC0CF020EE9FF011EE00F0080E07
:10127000DBCFE3FFE806FCE2000E296E010E2A6ECA
:101280004EEC11F08B0E5FEC0CF020EECDF011EE79
:1012900009F0050EDBCFE3FFE806FCE2090E296E3C
:1012A000010E2A6E4EEC11F0CB0E5FEC0CF020EE2E
:1012B000C7F011EE0FF0050EDBCFE3FFE806FCE20E
:1012C0000F0E296E010E2A6E4EEC11F0C20E5FEC6D
:1012D0000CF03A0E08EC0CF0C00E5FEC0CF04E0E69
:1012E0000001E96FEB0EE82EFED7E92FFCD783A6AD
:1012F0000FD0462A4604D8B457C046F0020E46180E
:10130000D8B456C046F0020E466402D0010E466EB6
:1013100057504618D8A45BD04E0E0001E96FEB0E73
:10132000E82EFED7E92FFCD7E7C026F0E8C027F06B
:10133000000E296E550E286E20EC10F026C039F0F4
:1013400027C03AF039503A10D8A404D0000E3A6EB3
:10135000010E396E3A5023E10A0E395CD8B01FD025
:10136000C00E5FEC0CF0300E08EC0CF0C10E5FEC20
:101370000CF0190E0001DA6F010EDB6F0B0EDC6F43
:10138000100EDD6F39C0DEF03AC0DFF0E6EC0AF097
:10139000190E296E010E2A6E4EEC11F018D0C00EF7
:1013A0005FEC0CF0150E0001DA6F010EDB6F0B0E17
:1013B000DC6F100EDD6F39C0DEF03AC0DFF0E6EC16
:1013C0000AF0150E296E010E2A6E4EEC11F05650E1
:1013D0004618D8A412004E0E0001E96FEB0EE82E5D
:1013E000FED7E92FFCD7E7C026F0E8C027F0000EB3
:1013F000296E110E286E20EC10F026C037F027C0A1
:1014000038F0385004E13C0E375CD8A004D0000E10
:10141000386E3B0E376E385023E10A0E375CD8B079
:101420001FD0C30E5FEC0CF0300E08EC0CF0C40EB5
:101430005FEC0CF01A0E0001DA6F010EDB6F0B0E81
:10144000DC6F100EDD6F37C0DEF038C0DFF0E6EC89
:101450000AF01A0E296E010E2A6E4EEC11F01200DF
:10146000C30E5FEC0CF0170E0001DA6F010EDB6F9C
:101470000B0EDC6F100EDD6F37C0DEF038C0DFF012
:10148000E6EC0AF0170E296E010E2A6E4EEC11F0F2
:101490001200800E5FEC0CF020EE8BF011EE00F0ED
:1014A000090EDBCFE3FFE806FCE2000E296E010E19
:1014B0002A6E4EEC11F08A0E5FEC0CF020EEAFF0CD
:1014C00011EE11F0050EDBCFE3FFE806FCE2110E92
:1014D000296E010E2A6E4EEC11F0CA0E5FEC0CF074
:1014E00020EEA8F011EE0AF0060EDBCFE3FFE806CF
:1014F000FCE20A0E296E010E2A6E4EEC11F0C60EA9
:101500005FEC0CF050C017F151C018F152C019F146
:1015100053C01AF1170E296E010E2A6E4EEC11F00F
:10152000E7C026F0E8C027F0000E296E110E286EE5
:1015300020EC10F026C031F027C032F0325004E128
:101540003C0E315CD8A004D0000E326E3B0E316EE2
:10155000325023E10A0E315CD8B01FD0C30E5FECCD
:101560000CF0300E08EC0CF0C40E5FEC0CF01D0E0D
:101570000001DA6F010EDB6F0B0EDC6F100EDD6FFA
:1015800031C0DEF032C0DFF0E6EC0AF01D0E296E4D
:10159000010E2A6E4EEC11F01200C30E5FEC0CF03F
:1015A0001B0E0001DA6F010EDB6F0B0EDC6F100EED
:1015B000DD6F31C0DEF032C0DFF0E6EC0AF01B0E6A
:1015C000296E010E2A6E4EEC11F01200DE0E0001A3
:1015D000E16F000EE26F79D0250EE619D8B409D07C
:1015E000DAC0D9FFDBC0DAFFE6C0DFFFDA4BDB2B66
:1015F0006CD0000EE06F03D0C00EE01311D0DCC041
:10160000F6FFDDC0F7FFDC4BDD2B0800F5CFE6F081
:10161000E651000AD8B465D0750AD8B4EDD755D0D4
:10162000E1C0D9FFE2C0DAFFDECFE3F0DDCFE4F0C6
:10163000020EE127000EE223010EE66F11D0E65103
:10164000020D010EF324F66E100EF420F76E090061
:10165000F550E35D0900F550E459D8A005D0E62B1C
:10166000050EE619D8A4EBD7E6C0E5F02AD0E5517F
:10167000020D010EF324F66E100EF420F76E090031
:10168000F5CF28F00A00F5CF29F0E3C026F0E4C03A
:1016900027F020EC10F026C02DF027C02EF0000E11
:1016A000306E0A0E2F6E96EC10F02D50300F0001A8
:1016B000E66FDAC0D9FFDBC0DAFFE6C0DFFFDA4B46
:1016C000DB2BE507E529D8A4D2D7DCC0F6FFDDC0C7
:1016D000F7FFDC4BDD2B0800F5CFE6F0E651D8A490
:1016E0007BD7DAC0D9FFDBC0DAFF000EDF6E120055
:1016F000800E5FEC0CF020EE95F011EE00F0090E7C
:10170000DBCFE3FFE806FCE2000E296E010E2A6E35
:101710004EEC11F08B0E5FEC0CF020EEBBF011EEF6
:101720000AF0050EDBCFE3FFE806FCE20A0E296EA5
:10173000010E2A6E4EEC11F0CB0E5FEC0CF020EE99
:10174000B5F011EE10F0050EDBCFE3FFE806FCE28A
:10175000100E296E010E2A6E4EEC11F0C80E5FECD1
:101760000CF0460E08EC0CF0C40E5FEC0CF04E0EC4
:101770000001E96FEB0EE82EFED7E92FFCD7E7C09A
:10178000E9F0E8C0EAF00001D890EA33E933D890F4
:10179000EA33E933E9C035F0EAC036F0640E3526A5
:1017A000000E362235C02DF036C02EF0000E306E01
:1017B000050E2F6E96EC10F02DC033F02EC034F0D5
:1017C00033C0E9F034C0EAF00001E91FEA1FE94B39
:1017D000EA2B3550E925356E3650EA21366E160E65
:1017E000DA6F010EDB6F0B0EDC6F100EDD6F35C094
:1017F000DEF036C0DFF0E6EC0AF0160E296E010EC0
:101800002A6E4EEC11F035C0E7F036C0E8F0120059
:10181000286E92909292929492969298929E28C05C
:1018200027F0100E806E030E266E980EE82EFED75F
:10183000262EFCD728380F0B286E28500F0B286E49
:1018400028509009286E28C080FF030E266E980E3F
:10185000E82EFED7262EFCD728501F0B286E28C056
:1018600080FF030E266E980EE82EFED7262EFCD79C
:10187000100E806E030E266E980EE82EFED7262ED2
:10188000FCD727C028F028500F0B286E285090094D
:10189000286E28C080FF030E266E980EE82EFED715
:1018A000262EFCD728501F0B286E28C080FF030E61
:1018B000266E980EE82EFED7262EFCD71200286E34
:1018C00092909292929492969298929E28C027F02B
:1018D000000E806E0D0E266EFC0EE82EFED7262E14
:1018E000FCD728380F0B286E28500F0B286E285075
:1018F0008009286E28C080FF0D0E266EFC0EE82E93
:10190000FED7262EFCD728500F0B286E28C080FF4C
:101910000D0E266EFC0EE82EFED7262EFCD7000EEE
:10192000806E0D0E266EFC0EE82EFED7262EFCD7FE
:1019300027C028F028500F0B286E28508009286EE9
:1019400028C080FF0D0E266EFC0EE82EFED7262E38
:10195000FCD728500F0B286E28C080FF0D0E266E76
:10196000FC0EE82EFED7262EFCD71200F60EF66EE1
:101970001E0EF76E000EF86E02EE00F010EE80F014
:101980000900F5CFEEFFE550E150FAE1EE0EF66EFC
:10199000240EF76E000EF86E01EEACF010EE0AF0B9
:1019A0000900F5CFEEFFE550E150FAE1E60EF66EE4
:1019B0001F0EF76E000EF86E00EE80F010EE59F07C
:1019C0000900F5CFEEFFE550E150FAE1A80EF66E02
:1019D000240EF76E000EF86E00EE4BF010EE0FF0D6
:1019E0000900F5CFEEFFE550E150FAE101EEB6F067
:1019F000070EEE6AE806FDE100EE31F01A0EEE6A1F
:101A0000E806FDE15A905A92000EF86E000108EFC8
:101A100008F0275004E1640E265CD8A00BD02750B4
:101A200009E1960E265CD8B005D0000E3C6E050E7E
:101A30003B6E1200275004E1960E265CD8A00BD016
:101A4000275009E1C80E265CD8B005D0000E3C6EC8
:101A5000040E3B6E1200275004E1C80E265CD8A08D
:101A60000BD0275009E1FA0E265CD8B005D0000E45
:101A70003C6E030E3B6E1200275004E1FA0E265C0A
:101A8000D8A00BD02C0E265C010E2758D8B005D05C
:101A9000000E3C6E020E3B6E12002C0E265C010EF8
:101AA0002758D8A01200000E3C6E010E3B6E1200AB
:101AB000010E81EC11F0436E00F043507F0B436E3A
:101AC0004350C2EC11F026500001E96F00F00A0EFD
:101AD0000001E9611ED0C30E5FEC0CF0300E08EC83
:101AE0000CF0C40E5FEC0CF0EA0E0001DA6F000E91
:101AF000DB6F0B0EDC6F100EDD6FE9C0DEF0DF6B0D
:101B0000E6EC0AF0EA0E296E000E2A6E4EEC11F099
:101B10001200C30E5FEC0CF0E70E0001DA6F000E4E
:101B2000DB6F0B0EDC6F100EDD6FE9C0DEF0DF6BDC
:101B3000E6EC0AF0E70E296E000E2A6E4EEC11F06C
:101B40001200000E81EC11F0416E00F041507F0B4D
:101B5000416E4150C2EC11F026500001E96F0A0EAF
:101B6000E9611ED0C60E5FEC0CF0300E08EC0CF0F4
:101B7000C70E5FEC0CF0EA0E0001DA6F000EDB6FAF
:101B80000B0EDC6F100EDD6FE9C0DEF0DF6BE6ECF4
:101B90000AF0EA0E296E000E2A6E4EEC11F01200C9
:101BA000C60E5FEC0CF0E70E0001DA6F000EDB6F83
:101BB0000B0EDC6F100EDD6FE9C0DEF0DF6BE6ECC4
:101BC0000AF0E70E296E000E2A6E4EEC11F012009C
:101BD000020E81EC11F0426E00F042501F0B426E7B
:101BE0004250C2EC11F026500001E96F0A0EE96183
:101BF0001ED0C00E5FEC0CF0300E08EC0CF0C10EE5
:101C00005FEC0CF0EA0E0001DA6F000EDB6F0B0EDA
:101C1000DC6F100EDD6FE9C0DEF0DF6BE6EC0AF082
:101C2000EA0E296E000E2A6E4EEC11F01200C00E64
:101C30005FEC0CF0E70E0001DA6F000EDB6F0B0EAD
:101C4000DC6F100EDD6FE9C0DEF0DF6BE6EC0AF052
:101C5000E70E296E000E2A6E4EEC11F01200800E77
:101C60005FEC0CF020EE4BF010EEF1F0040EDBCF49
:101C7000E3FFE806FCE2F10E296E000E2A6E4EEC40
:101C800011F08B0E5FEC0CF054C0F6F055C0F7F07D
:101C9000F60E296E000E2A6E4EEC11F0CB0E5FECA4
:101CA0000CF020EEC1F010EEEBF0050EDBCFE3FF01
:101CB000E806FCE2EB0E296E000E2A6E4EEC11F0E7
:101CC000E8EC0DF0C20E5FEC0CF03A0E08EC0CF0F4
:101CD00058EC0DF0C50E5FEC0CF03A0E08EC0CF071
:101CE000A1EC0DF01200000E2D6E2DC029F0010E9A
:101CF0002A6E45C02BF0DE0EE8EC11F02DC029F065
:101D0000020E2A6E44C02BF0DE0EE8EC11F02DC05E
:101D100029F0000E2A6E800E2B6EDE0EE8EC11F01C
:101D20002DC029F0030E2A6E010E2B6EDE0EE8EC9C
:101D300011F02DC029F0040E2A6E010E2B6EDE0E5E
:101D4000E8EC11F02DC029F0050E2A6E030E2B6E63
:101D5000DE0EE8EC11F02DC029F0060E2A6E000E02
:101D60002B6EDE0EE8EC11F01200000E2D6E2DC071
:101D700029F0070E2A6E100E2B6EDE0EE8EC11F025
:101D80002DC029F00A0E2A6E000E2B6EDE0EE8EC36
:101D900011F02DC029F00B0E2A6E40C02BF0DE0E84
:101DA000E8EC11F02DC029F00C0E2A6E610E2B6E9E
:101DB000DE0EE8EC11F02DC029F00D0E2A6E910E0A
:101DC0002B6EDE0EE8EC11F02DC029F00E0E2A6EFF
:101DD000010E2B6EDE0EE8EC11F02DC029F00F0E77
:101DE0002A6E010E2B6EDE0EE8EC11F01200000ED2
:101DF0002B6E29AE06D0286C291ED8B0292A010ED8
:101E00002B6E27AE06D0266C271ED8B0272A010ECF
:101E10002B1A000E2D6E000E2C6E28502910D8B4EF
:101E20001CD0010E2A6E04D0D890283629362A2AD2
:101E300029AEFAD7D8902C362D362850265C29505A
:101E40002758D8A005D02850265E2950275A2C8024
:101E5000D890293228322A2EEDD72B50D8B404D06E
:101E60002C6C2D1ED8B02D2A2CC026F02DC027F0AA
:101E7000120083A01200000E286E000E276E000EC6
:101E80002A6E000E296E72EC10F08C9C8C8E000E67
:101E9000496E37EC12F0F9EC10F080EC12F0800E85
:101EA0005FEC0CF020EE80F010EEDFF00A0EDBCFDE
:101EB000E3FFE806FCE2DF0E296E000E2A6E4EEC10
:101EC00011F0CB0E5FEC0CF020EED3F010EEEAF048
:101ED000050EDBCFE3FFE806FCE2EA0E296E000EFA
:101EE0002A6E4EEC11F0090E0101BC6F010E4A6E14
:101EF000010ECB6E12000002320263029402C30292
:101F0000F1021C03440369038B03A903C303D80331
:101F1000E903F503FD03FF03FD03F503E903D8031C
:101F2000C303A9038B03690344031C03F102C30227
:101F30009402630232020002CD019C016B013C015C
:101F40000E01E300BB009600740056003C00270021
:101F500016000A000200000002000A001600270016
:101F60003C00560074009600BB00E3000E013C01EB
:101F70006B019C01CD01000E2B6E27AE06D0266CA6
:101F8000271ED8B0272A010E2B6E29AE04D0286C4C
:101F9000291ED8B0292A28502910D8B418D0010EEB
:101FA0002A6E04D0D890283629362A2A29AEFAD7A4
:101FB0002850265C29502758D8A004D02850265EE7
:101FC0002950275AD890293228322A2EF1D72B505F
:101FD000D8B404D0266C271ED8B0272A26C026F0F5
:101FE00027C027F0120042616B6520446F6E6521A7
:101FF0000042616B652054696D650042616B65202C
:1020000054656D70005365742054696D65007C5390
:1020100074617274007C4261636B007C4E657874FD
:10202000007C4261636B007C42616B65007C4E65A5
:0F2030007874007C4D6F766500436C65617200BB
:10204000000E2C6E000E2B6E28502910D8B41CD018
:10205000010E2A6E04D0D890283629362A2A29AEB5
:10206000FAD7D8902B362C362850265C2950275882
:10207000D8A005D02850265E2950275A2B80D8900A
:10208000293228322A2EEDD72BC026F02CC027F07B
:102090001200000E066E000E056E03500410D8B438
:1020A0001CD0010E076E04D0D89003360436072AE0
:1020B00004AEFAD7D890053606360350015C0450BA
:1020C0000258D8A005D00350015E0450025A058082
:1020D000D89004320332072EEDD705C001F006C0B8
:1020E00002F0120094948294F00E0001DA6F000E58
:1020F000D96F27C02BF028C02CF0D8902B362C3667
:10210000D8902B362C36D9512B10DD6FDA512C108C
:10211000DE6FDE51DB6FDDC0DCF0DB5163EC12F013
:102120000001DC5163EC12F0828412002F50301059
:10213000D8B419D0010E0001D96F04D0D8902F3631
:102140003036D92B30AEFAD72F502D5C30502E5868
:10215000D8A004D02F502D5E30502E5AD890303257
:102160002F32D92FF1D72DC02DF02EC02EF0120016
:1021700094948294F00E0F6E000E0E6E08C00CF058
:1021800009C00DF0D8900C360D36D8900C360D36AF
:102190000E500C10126E0F500D10136E1350106E67
:1021A00012C011F010506AEC12F011506AEC12F0EB
:1021B00082841200010E81EC11F03F6E3F507F0BC4
:1021C0003F6E3F50D5EC11F026500001D96F31C061
:1021D00040F04050D925406E3B0E406402D031049F
:1021E000406E405033EC11F00001DA6FDAC040F07D
:1021F0001200000E296E070E2A6E000E2B6EDE0EE8
:10220000E8EC11F0020E2E6E040E2D6EBA0EE82EC2
:10221000FED72D2EFCD72E2EFAD700D0000E296E19
:102220000D0E2A6E000E2B6EDE0EE8EC11F0120081
:10223000306E30C026F0276A000E296E0A0E286E16
:10224000BBEC0FF026C02EF027C02FF030C026F0D8
:10225000276A000E296E0A0E286EF7EC0EF026385B
:10226000F00B2E101200306E30C026F0276A000EE0
:10227000296E0A0E286EBBEC0FF026C02EF027C088
:102280002FF030C026F0276A000E296E0A0E286E45
:10229000F7EC0EF02638F00B2E101200000E2C6E0C
:1022A000000E2B6E0BD02B502924D96E2C502A20D7
:1022B000DA6EDF5008EC0CF02B4A2C2A2B50292424
:1022C000D96E2C502A20DA6EDF50D8B41200EBD72A
:1022D00037C045F039C044F0455018EC11F000010A
:1022E000D96F445018EC11F00001DA6FDA5120096F
:1022F000DA6FDA514009DA6FD9C045F0DAC044F03C
:102300001200296E88EC12F047C027F0DE0E28EC90
:1023100012F0295071EC12F088EC12F059C027F03D
:10232000DE0E28EC12F0000E9AEC11F02A6EC58435
:102330002A501200276E43EC12F0C58643EC12F0CF
:1023400000F0C9CF28F043EC12F02750D8B402D0E7
:10235000C59A01D0C58AC58828501200046E04C0F1
:1023600003F003460346C2500318C30B0318C26EA2
:10237000C280C282C2B2FED7C290C3CF01F0C4CF26
:1023800002F01200296E29C028F0283A0F0E2816F4
:102390002850060DF31EF41EF34AF42A2950F324A4
:1023A000266E000EF420276E1200296E29C028F038
:1023B000283A0F0E28162850060DF31EF41EF34A75
:1023C000F42A2950F324266E000EF420276E120002
:1023D0002C6E88EC12F029C027F02C5028EC12F05B
:1023E0002A5071EC12F02B5071EC12F084EC12F0C8
:1023F0001200330E5FEC0CF0320E5FEC0CF02C0E82
:102400005FEC0CF00C0E5FEC0CF0010E5FEC0CF0CE
:102410001200286ED00E276ECA0EE82EFED7272E89
:10242000FCD783A403D028C0BCF1120026C0BCF1A5
:102430001200000E946E949A94889496928AC78E95
:10244000C79CC68AC688C696C694C682C690120025
:10245000286E2750D8B403D02850010902D0285044
:10246000FE0B286E43EC12F028C0C9FF1200280EA4
:10247000C66E000EC56E090EC86E800EC76E9486BD
:1024800094889E961200C5CF26F01F0E2616D8A45B
:10249000FAD7C7A41200F7D7CB68CA8CCA8ACA88F1
:1024A000CA86CA82CA84120054696D65004D494EBD
:0724B000007C000201DE01C7
:1024B800958495869580959294928B921200266EBB
:1024C80026C0C9FF9EA6FED79E961200016E01C0C7
:1024D800C9FF9EA6FED79E961200276E43EC12F007
:1024E80027C0C9FF120042616B696E672E2E2E004D
:1024F800140E5FEC0CF01200010E5FEC0CF01200F1
:1025080043EC12F0C584120043EC12F0C5801200AF
:06251800A50EC06E1200CA
:020000040020DA
:08000000FFFFFFFFFFFFFFFF00
:020000040030CA
:0E000000FF08191EFF8381FF0FC00FE00F40A5
:00000001FF
